:100000000200745389F0438902758C1A758A1AE4C8
:10001000FDFCC3ED9FEC9E501EE4FBFAD28C308DAC
:10002000FDC28D0BBB00010ABA01F1BB90EEC28C80
:100030000DBD00010C80DB2253890F438910E4FDC4
:10004000FCC3ED9FEC9E5016758D3C758BB0D28E27
:10005000308FFDC28EC28F0DBD00010C80E3227572
:1000600090FF7F647E00120038E4F5907F64FE12FA
:10007000000380EB787FE4F6D8FD75810902005F0C
:00000001FF
